:020000040800F2
:1000000000000120392A0008310D0008330D0008D6
:10001000350D0008370D0008390D000800000000FC
:100020000000000000000000000000003B0D000880
:100030003D0D0008000000003F0D0008410D0008C4
:10004000812A0008812A0008812A0008812A0008E4
:10005000812A0008812A0008812A0008812A0008D4
:10006000812A0008812A0008812A0008812A0008C4
:10007000812A0008812A0008812A0008812A0008B4
:10008000812A0008812A0008812A0008812A0008A4
:10009000812A0008812A0008812A0008812A000894
:1000A000812A0008812A0008812A0008812A000884
:1000B000812A0008812A0008812A0008812A000874
:1000C000812A0008812A0008812A0008812A000864
:1000D000812A0008490D0008812A0008812A0008A9
:1000E000812A0008812A0008812A0008812A000844
:1000F000812A0008812A0008812A0008812A000834
:10010000812A0008812A0008812A0008812A000823
:10011000812A0008812A0008812A0008812A000813
:10012000812A0008812A0008812A0008812A000803
:1001300000000000000000000000000000000000BF
:1001400000000000000000000000000000000000AF
:10015000000000000000000000000000000000009F
:10016000000000000000000000000000000000008F
:10017000000000000000000000000000000000007F
:10018000000000000000000000000000000000006F
:10019000000000000000000000000000000000005F
:1001A000000000000000000000000000000000004F
:1001B000000000000000000000000000000000003F
:1001C000000000000000000000000000000000002F
:1001D000000000000000000000000000000000001F
:0401E0005FF8E0F1F3
:1001E80010B5054C237833B9044B13B10448AFF369
:1001F80000800123237010BDDC01002000000000F6
:100208002445000808B5034B1BB103490348AFF365
:10021800008008BD00000000E0010020244500081F
:10022800034613F8012B002AFBD1181A013870472E
:1002380081F0004102E000BF83F0004330B54FEA8F
:1002480041044FEA430594EA050F08BF90EA020FFC
:100258001FBF54EA000C55EA020C7FEA645C7FEA8F
:10026800655C00F0E2804FEA5454D4EB5555B8BFB2
:100278006D420CDD2C4480EA020281EA030382EA23
:10028800000083EA010180EA020281EA0303362DB5
:1002980088BF30BD11F0004F4FEA01314FF4801C88
:1002A8004CEA113102D0404261EB410113F0004F9A
:1002B8004FEA03334CEA133302D0524263EB430351
:1002C80094EA050F00F0A780A4F10104D5F1200EEF
:1002D8000DDB02FA0EFC22FA05F2801841F100014A
:1002E80003FA0EF2801843FA05F359410EE0A5F11E
:1002F80020050EF1200E012A03FA0EFC28BF4CF04F
:10030800020C43FA05F3C01851EBE37101F0004504
:1003180007D54FF0000EDCF1000C7EEB00006EEB11
:100328000101B1F5801F1BD3B1F5001F0CD349089B
:100338005FEA30004FEA3C0C04F101044FEA4452F2
:1003480012F5800F80F09A80BCF1004F08BF5FEA79
:10035800500C50F1000041EB045141EA050130BD59
:100368005FEA4C0C404141EB010111F4801FA4F1FC
:100378000104E9D191F0000F04BF01460020B1FA51
:1003880081F308BF2033A3F10B03B3F120020CDA89
:100398000C3208DD02F1140CC2F10C0201FA0CF067
:1003A80021FA02F10CE002F11402D8BFC2F1200CCC
:1003B80001FA02F120FA0CFCDCBF41EA0C01904082
:1003C800E41AA2BF01EB0451294330BD6FEA0404CB
:1003D8001F3C1CDA0C340EDC04F11404C4F12002B6
:1003E80020FA04F001FA02F340EA030021FA04F3C8
:1003F80045EA030130BDC4F10C04C4F1200220FA1F
:1004080002F001FA04F340EA0300294630BD21FA5C
:1004180004F0294630BD94F0000F83F4801306BF22
:1004280081F480110134013D4EE77FEA645C18BF16
:100438007FEA655C29D094EA050F08BF90EA020FAD
:1004480005D054EA000C04BF1946104630BD91EAA5
:10045800030F1EBF0021002030BD5FEA545C05D1A8
:100468004000494128BF41F0004130BD14F58004E7
:100478003CBF01F5801130BD01F0004545F0FE415B
:1004880041F470014FF0000030BD7FEA645C1ABF90
:10049800194610467FEA655C1CBF0B46024650EAC7
:1004A800013406BF52EA033591EA030F41F40021F3
:1004B80030BD00BF90F0000F04BF0021704730B579
:1004C8004FF4806404F132044FF000054FF000014E
:1004D80050E700BF90F0000F04BF0021704730B50F
:1004E8004FF4806404F1320410F0004548BF4042E4
:1004F8004FF000013EE700BF42004FEAE2014FEA39
:1005080031014FEA02701FBF12F07F4393F07F4F13
:1005180081F06051704732F07F4208BF704793F016
:100528007F4F04BF41F40021704730B54FF4607429
:1005380001F0004521F000411CE700BF50EA01022C
:1005480008BF704730B54FF000050AE050EA0102D5
:1005580008BF704730B511F0004502D5404261EB45
:1005680041014FF4806404F132045FEA915C3FF486
:10057800D8AE4FF003025FEADC0C18BF03325FEA23
:10058800DC0C18BF033202EBDC02C2F1200300FAD4
:1005980003FC20FA02F001FA03FE40EA0E0021FAF9
:1005A80002F11444BDE600BF70B54FF0FF0C4CF4E7
:1005B800E06C1CEA11541DBF1CEA135594EA0C0F99
:1005C80095EA0C0F00F0DEF82C4481EA030621EAD4
:1005D8004C5123EA4C5350EA013518BF52EA03350F
:1005E80041F4801143F4801338D0A0FB02CE4FF0C1
:1005F8000005E1FB02E506F00042E0FB03E54FF0F1
:100608000006E1FB03569CF0000F18BF4EF0010EE8
:10061800A4F1FF04B6F5007F64F5407404D25FEAE4
:100628004E0E6D4146EB060642EAC62141EA555197
:100638004FEAC52040EA5E504FEACE2EB4F1FD0CD9
:1006480088BFBCF5E06F1ED8BEF1004F08BF5FEA57
:10065800500E50F1000041EB045170BD06F0004609
:1006680046EA010140EA020081EA0301B4EB5C04B6
:10067800C2BFD4EB0C0541EA045170BD41F48011AE
:100688004FF0000E013C00F3AB8014F1360FDEBFD3
:10069800002001F0004170BDC4F10004203C35DAAF
:1006A8000C341BDC04F11404C4F1200500FA05F332
:1006B80020FA04F001FA05F240EA020001F00042D3
:1006C80021F0004110EBD37021FA04F642EB060149
:1006D8005EEA430E08BF20EAD37070BDC4F10C0473
:1006E800C4F1200500FA04F320FA05F001FA04F237
:1006F80040EA020001F0004110EBD37041F1000123
:100708005EEA430E08BF20EAD37070BDC4F120052D
:1007180000FA05F24EEA020E20FA04F301FA05F295
:1007280043EA020321FA04F001F0004121FA04F23D
:1007380020EA020000EBD3705EEA430E08BF20EA0D
:10074800D37070BD94F0000F0FD101F00046400047
:1007580041EB010111F4801F08BF013CF7D041EAC9
:10076800060195F0000F18BF704703F000465200CD
:1007780043EB030313F4801F08BF013DF7D043EA9E
:100788000603704794EA0C0F0CEA135518BF95EA54
:100798000C0F0CD050EA410618BF52EA4306D1D1DB
:1007A80081EA030101F000414FF0000070BD50EAFA
:1007B800410606BF1046194652EA430619D094EA84
:1007C8000C0F02D150EA013613D195EA0C0F05D16E
:1007D80052EA03361CBF104619460AD181EA0301C2
:1007E80001F0004141F0FE4141F470014FF000007A
:1007F80070BD41F0FE4141F4780170BD70B54FF015
:10080800FF0C4CF4E06C1CEA11541DBF1CEA135594
:1008180094EA0C0F95EA0C0F00F0A7F8A4EB050476
:1008280081EA030E52EA03354FEA013100F088806D
:100838004FEA03334FF0805545EA131343EA126336
:100848004FEA022245EA111545EA10654FEA0026EB
:100858000EF000419D4208BF964244F1FD0404F5A4
:10086800407402D25B084FEA3202B61A65EB030500
:100878005B084FEA32024FF480104FF4002CB6EBBD
:10088800020E75EB030E22BFB61A754640EA0C003D
:100898005B084FEA3202B6EB020E75EB030E22BF7D
:1008A800B61A754640EA5C005B084FEA3202B6EBBE
:1008B800020E75EB030E22BFB61A754640EA9C007D
:1008C8005B084FEA3202B6EB020E75EB030E22BF4D
:1008D800B61A754640EADC0055EA060E18D04FEA0B
:1008E800051545EA16754FEA06164FEAC30343EAAB
:1008F80052734FEAC2025FEA1C1CC0D111F4801F78
:100908000BD141EA00014FF000004FF0004CB6E770
:1009180011F4801F04BF01430020B4F1FD0C88BF0F
:10092800BCF5E06F3FF6AFAEB5EB030C04BFB6EB1A
:10093800020C5FEA500C50F1000041EB045170BD0D
:100948000EF0004E4EEA113114EB5C04C2BFD4EB3A
:100958000C0541EA045170BD41F480114FF0000EBE
:10096800013C90E645EA060E8DE60CEA135594EA3A
:100978000C0F08BF95EA0C0F3FF43BAF94EA0C0F3D
:100988000AD150EA01347FF434AF95EA0C0F7FF4B2
:1009980025AF104619462CE795EA0C0F06D152EA06
:1009A80003353FF4FDAE1046194622E750EA4106EA
:1009B80018BF52EA43067FF4C5AE50EA41047FF4FB
:1009C8000DAF52EA43057FF4EBAE12E74FF0FF3C60
:1009D80006E000BF4FF0010C02E000BF4FF0010C31
:1009E8004DF804CD4FEA410C7FEA6C5C4FEA430CAA
:1009F80018BF7FEA6C5C1BD001B050EA410C0CBFF9
:100A080052EA430C91EA030F02BF90EA020F00205A
:100A1800704710F1000F91EA030F58BF994208BFC1
:100A280090422CBFD8176FEAE37040F0010070477E
:100A38004FEA410C7FEA6C5C02D150EA013C07D1D5
:100A48004FEA430C7FEA6C5CD6D152EA033CD3D020
:100A58005DF8040B704700BF8446104662468C461A
:100A68001946634600E000BF01B5FFF7B7FF00284D
:100A780048BF10F1000F01BD4DF808EDFFF7F4FF76
:100A88000CBF012000205DF808FB00BF4DF808ED01
:100A9800FFF7EAFF34BF012000205DF808FB00BF24
:100AA8004DF808EDFFF7E0FF94BF012000205DF846
:100AB80008FB00BF4DF808EDFFF7CEFF94BF0120FB
:100AC80000205DF808FB00BF4DF808EDFFF7C4FFF4
:100AD80034BF012000205DF808FB00BF4FEA410C3D
:100AE8007FEA6C5C02D150EA013C0AD14FEA430C20
:100AF8007FEA6C5C02D152EA033C02D14FF000005D
:100B080070474FF0010070474FEA410212F500129A
:100B180015D211D56FF47873B3EB625212D94FEA3C
:100B2800C12343F0004343EA505311F0004F23FA26
:100B380002F018BF404270474FF00000704750EA7B
:100B4800013005D111F0004008BF6FF00040704738
:100B58004FF00000704700BF72B6FEE700B591B0D5
:100B68000023089309930B930C9301930293039327
:100B780004930593012206924FF4803307930A9257
:100B880002220D920E934FF4E0130F9306A800F083
:100B9800B3FB80B90F230193022102910023039331
:100BA8004FF480620492059301A800F0E5FD20B996
:100BB80011B05DF804FBFFF7CFFFFFF7CDFF000092
:100BC80008B500F04BFBFFF7C9FF01F0FDF900F095
:100BD80011F800F04BF801F027FA4FF4807104483F
:100BE80000F0A4FF4FF4FA7000F05CFBF5E700BFDB
:100BF8000010014010B588B00022049205920692B8
:100C08000792184B996941F010019961996901F0AF
:100C1800100101910199996941F02001996199693F
:100C280001F0200102910299996941F0040199614A
:100C38009B6903F004030393039B0B4C4FF48071EF
:100C4800204600F06DFF4FF4807304930123059351
:100C580006930323079304A9204600F067FE08B013
:100C680010BD00BF001002400010014008B50A483E
:100C78000A4B03604FF4E133436000238360C36091
:100C880003610C2242618361C36100F015F900B968
:100C980008BDFFF761FFFBE70802002000380140AC
:100CA80030B587B000230293039304930593026839
:100CB8001B4B9A4201D007B030BD03F558439A69DF
:100CC80042F480429A619A6902F480420092009A42
:100CD8009A6942F004029A619B6903F00403019344
:100CE800019B4FF40073029302230393032305939C
:100CF8000C4D02A9284600F019FE4FF480630293B8
:100D080000240394049402A9284600F00FFE22460A
:100D18002146252000F0FCFF252001F02DF8CAE728
:100D28000038014000080140FEE7FEE7FEE7FEE765
:100D3800FEE770477047704708B500F0A1FA08BD94
:100D480008B5024800F06AF908BD00BF0802002093
:100D580082B00E4B9A6942F001029A619A6902F0D8
:100D680001020092009ADA6942F08052DA61DB6986
:100D780003F080530193019B054A536823F0E06315
:100D880043F00073536002B0704700BF0010024088
:100D9800000001400268D36823F49073D3600268AE
:100DA800536923F001035361036B012B05D0202302
:100DB80080F83E300023036370470268D36823F04D
:100DC8001003D360F3E790F83D30DBB2212B27D135
:100DD8008368B3F5805F16D0036A5A1C02621A78DA
:100DE80003685A60C38C013B9BB2C384D3B90268C1
:100DF800D36823F08003D3600268D36843F04003CC
:100E0800D360002070470369002BE5D1036A1B8873
:100E18000268C3F308035360036A02330362E1E71D
:100E2800022070470020704738B5044602681369ED
:100E380023F44053C1680B43136183680269134369
:100E480042691A430168CB6823F4B05323F00C03BA
:100E58001343CB600268536923F4407381690B43E1
:100E680053610268124B9A421FD000F03FFD00EB1D
:100E7800800000EB800063689B00B0FBF3F00D4D31
:100E8800A5FB00325109642202FB1102130132331F
:100E9800A5FB03235B0903F0F00202EB011203F048
:100EA8000F03216813448B6038BD00F02FFDDEE787
:100EB800003801401F85EB5158B310B5044690F82F
:100EC8003D300BB3242384F83D302268D36823F4E3
:100ED8000053D3602046FFF7A7FF2268136923F465
:100EE800904313612268536923F02A0353612268EF
:100EF800D36843F40053D36000202064202384F88F
:100F08003D3084F83E3010BD80F83C30FFF7C8FE15
:100F1800D8E701207047704708B50168CB6823F00F
:100F28004003CB60202380F83D30FFF7F4FF00201A
:100F380008BD7047704708B5406A0023C385C3845D
:100F4800FFF7F8FF08BD704790F83E30DBB2222B60
:100F580060D18368B3F5805F45D0826AB3F5805F5E
:100F680004D0002B4CD10369002B49D103685B687E
:100F78001370836A01338362C38D013B9BB2C385BF
:100F8800002B49D100B583B00268D36823F0200351
:100F9800D3600268D36823F48073D360026853690E
:100FA80023F001035361202380F83E30036B012BAB
:100FB8002CD1002303630268D36823F01003D360A5
:100FC80003681A6812F0100F06D0002201921A68FE
:100FD80001925B680193019B818DFFF7B4FF0020AC
:100FE80003B05DF804FB0269002AB6D1826A03687F
:100FF8005B68C3F308031380836A02338362BBE729
:1010080003685B6803F07F031370B2E7FFF791FF93
:101018000020E5E7022070470020704730B583B014
:10102800044602681368D068516913F00F0505D1AA
:1010380013F0200F02D010F0200F56D1002D6AD0E7
:1010480011F0010102D110F4907F64D013F0010F68
:1010580006D010F4807F03D0226C42F00102226493
:1010680013F0040F04D019B1226C42F0020222647A
:1010780013F0020F04D019B1226C42F0040222646A
:1010880013F0080F07D010F0200F00D119B1226C0F
:1010980042F008022264226C002A4BD013F0200F81
:1010A80002D010F0200F24D123685B6903F04003BD
:1010B800226C12F0080F00D13BB32046FFF76AFEFE
:1010C80023685A6912F0400F1BD05A6922F0400277
:1010D8005A61A36B8BB14D4A5A63A06B00F052FD65
:1010E80040B3A06B436B984724E02046FFF72CFFE2
:1010F80020E02046FFF728FFD6E72046FFF71AFF33
:1011080018E02046FFF716FF14E02046FFF712FF0D
:10111800002323640EE0216B01290DD013F0800F0A
:1011280002D010F0800F69D113F0400F02D010F0F8
:10113800400F67D103B030BD13F0100FEED010F0A0
:10114800100FEBD0002301931368019353680193A8
:10115800019B536913F0400F2FD0A16B0B685B689C
:101168009BB2002BE6D0A08D9842E3D9E3858B692A
:10117800202B1AD0D36823F48073D3602268536974
:1011880023F0010353612268536923F0400353613C
:10119800202384F83E30002323632268D36823F099
:1011A8001003D360A06B00F0CAFCA18DE38DC91AAF
:1011B80089B22046FFF7C7FEBCE7A18DE38DC91AA7
:1011C80089B2E38D9BB2002BB4D00029B2D0D3688A
:1011D80023F49073D3602268536923F001035361A9
:1011E800202384F83E30002323632268D36823F049
:1011F8001003D3602046FFF7A6FE9BE72046FFF7C3
:10120800E2FD97E72046FFF787FE93E73F0F0008C8
:1012180010B504460E4B18784FF47A73B3FBF0F30D
:101228000C4A1068B0FBF3F000F0B4FD68B90F2C5D
:1012380001D901200AE0002221464FF0FF3000F0DA
:1012480067FD054B1C60002000E0012010BD00BFB9
:1012580000000020080000200400002008B5074A0C
:10126800136843F010031360032000F03FFD0F20C4
:10127800FFF7CEFFFFF76CFD002008BD00200240FD
:10128800034A1168034B1B780B441360704700BF77
:101298004C02002000000020014B1868704700BF76
:1012A8004C02002038B50446FFF7F6FF0546B4F1B6
:1012B800FF3F02D0044B1B781C44FFF7EDFF401B97
:1012C800A042FAD338BD00BF0000002082B0084B0E
:1012D8001B68084AA2FB03235B0A00FB03F001908A
:1012E80000BF019B5A1E0192002BF9D102B0704732
:1012F80008000020D34D6210002800F0F58170B579
:1013080082B00446036813F0010F2CD0AB4B5B6826
:1013180003F00C03042B1DD0A84B5B6803F00C03EF
:10132800082B12D06368B3F5803F41D0002B55D10C
:1013380003F1804303F504331A6822F480321A60FB
:101348001A6822F480221A6037E09C4B5B6813F419
:10135800803FE7D0994B1B6813F4003F03D06368C4
:10136800002B00F0C381236813F0020F76D0934B53
:101378005B6813F00C0F5FD0904B5B6803F00C03B5
:10138800082B54D02369002B00F08A808C4B012253
:101398001A60FFF781FF0546884B1B6813F0020FA0
:1013A80075D1FFF779FF401B0228F5D90320A0E18A
:1013B800824A136843F480331360636843B3FFF7CA
:1013C8006BFF05467D4B1B6813F4003FCBD1FFF73D
:1013D80063FF401B6428F5D903208AE1B3F5A02FE9
:1013E80009D0764B1A6822F480321A601A6822F4FF
:1013F80080221A60E1E703F18043A3F53C331A68C1
:1014080042F480221A601A6842F480321A60D4E7E3
:10141800FFF742FF0546694B1B6813F4003FA2D053
:10142800FFF73AFF401B6428F5D9032061E1634BBD
:101438005B6813F4803FA5D1604B1B6813F0020F63
:1014480004D02369012B01D0012052E15B4A1368C3
:1014580023F0F803616943EAC1031360236813F0BA
:10146800080F32D0A369002B5BD0564B01221A60BB
:10147800FFF712FF0546514B5B6A13F0020F21D1AB
:10148800FFF70AFF401B0228F5D9032031E14B4A38
:10149800136823F0F803616943EAC1031360DDE7C9
:1014A800474B00221A60FFF7F7FE0546434B1B68BF
:1014B80013F0020FD2D0FFF7EFFE401B0228F5D938
:1014C800032016E10120FFF701FF236813F0040F42
:1014D80000F09880394BDB6913F0805F33D1374BCC
:1014E800DA6942F08052DA61DB6903F080530193D4
:1014F800019B0125344B1B6813F4807F25D0E368DA
:10150800012B36D0002B4CD103F1804303F5043373
:101518001A6A22F001021A621A6A22F004021A6296
:101528002CE0284B00221A60FFF7B6FE0546234B35
:101538005B6A13F0020FC8D0FFF7AEFE401B02280B
:10154800F5D90320D5E00025D4E71F4A136843F4F2
:1015580080731360FFF7A0FE06461B4B1B6813F44D
:10156800807FCCD1FFF798FE801B6428F5D9032033
:10157800BFE0124A136A43F001031362E3687BB3C6
:10158800FFF78AFE06460D4B1B6A13F0020F38D18F
:10159800FFF782FE801B41F288339842F3D903207B
:1015A800A7E0052B12D0054B1A6A22F001021A6235
:1015B8001A6A22F004021A62E0E700BF0010024033
:1015C8000000424280044242007000404C4B1A6ABC
:1015D80042F004021A621A6A42F001021A62CDE766
:1015E800FFF75AFE0646464B1B6A13F0020F08D057
:1015F800FFF752FE801B41F288339842F3D903204B
:1016080077E0E5B9E369002B72D03D4A526802F0F1
:101618000C02082A56D0022B17D03A4B00221A6027
:10162800FFF73AFE0446364B1B6813F0007F47D09D
:10163800FFF732FE001B0228F5D9032059E0304A93
:10164800D36923F08053D361DCE72E4B00221A6064
:10165800FFF722FE05462A4B1B6813F0007F06D0D1
:10166800FFF71AFE401B0228F5D9032041E0236A40
:10167800B3F5803F1AD022494B6823F47413226AC9
:10168800606A024313434B601E4B01221A60FFF746
:1016980003FE04461A4B1B6813F0007F0ED1FFF7B8
:1016A800FBFD001B0228F5D9032022E0144A5368E9
:1016B80023F40033A1680B435360DCE7002018E0F3
:1016C800002016E0012B16D00D4B5B6803F4803127
:1016D800226A914201D001200BE003F47013626A80
:1016E80093420AD0012004E001207047012000E065
:1016F800002002B070BD0120FBE70020F9E700BF21
:10170800001002406000424210B487B0164C94E8C2
:101718000F000DF1180C0CE90F00238AADF8043006
:10172800124B5B6803F00C02082A1AD1C3F38342F8
:10173800624412F8102C13F4803F05D10C4800FBCA
:1017480002F007B010BC7047084B5B68C3F3404316
:10175800634413F8143C074800FB02F0B0FBF3F0B5
:10176800EFE70448EDE700BF4045000800100240DD
:1017780000093D0000127A00002800F0A38070B52F
:101788000446524B1B6803F007038B420CD24F4AA6
:10179800136823F007030B431360136803F0070370
:1017A8008B4201D0012070BD236813F0020F17D0BF
:1017B80013F0040F04D0464A536843F4E0635360BF
:1017C800236813F0080F04D0414A536843F4605368
:1017D80053603F4A536823F0F003A0680343536003
:1017E8000D46236813F0010F31D06368012B20D018
:1017F800022B25D0364A126812F0020F64D0344901
:101808004A6822F0030213434B60FFF745FD064682
:101818002F4B5B6803F00C036268B3EB820F16D0A2
:10182800FFF73AFD801B41F288339842F0D9032034
:10183800B9E7274A126812F4003FE0D10120B2E765
:10184800234A126812F0007FD9D10120ABE71F4B61
:101858001B6803F00703AB420CD91C4A136823F03A
:1018680007032B431360136803F00703AB4201D04F
:10187800012098E7236813F0040F06D0144A536830
:1018880023F4E063E1680B435360236813F0080F07
:1018980007D00F4A536823F46053216943EAC10310
:1018A8005360FFF731FF0A4B5B68C3F30313094A20
:1018B800D35CD840084B1860084B1868FFF7A8FCA1
:1018C800002070E70120704701206CE700200240EB
:1018D80000100240544500080800002004000020C1
:1018E800014B1868704700BF0800002008B5FFF7D3
:1018F800F7FF044B5B68C3F30223034AD35CD84069
:1019080008BD00BF001002406445000808B5FFF795
:10191800E7FF044B5B68C3F3C223034AD35CD84098
:1019280008BD00BF0010024064450008F0B482B052
:1019380000263246ABE0002D63D0012D00D1CE68E1
:10194800FF2B72D88446FF2B72D89500DCF8004034
:101958000F27AF4024EA070406FA05F52C43CCF814
:1019680000404C6814F0805F00F09080664CA569D8
:1019780045F00105A561A46904F001040194019CE6
:101988009508AF1C614C54F827C002F00304A70067
:101998000F24BC402CEA040C5D4CA0424ED004F548
:1019A8008064A04200F08C8004F58064A04200F0BE
:1019B800898004F58064A04200F0868004F5806484
:1019C800A04200F0838004F58064A04234D006244D
:1019D80035E0504FBD4214D00BD94F4FBD4210D007
:1019E80007F58037BD420CD0A7F58017BD42A7D1B7
:1019F80007E0A7F58017BD4203D007F58037BD4241
:101A08009ED18D687DB1012D08D04461082697E7E5
:101A1800CE68083694E7CE680C3691E7046108264C
:101A28008EE700268CE704268AE700F1040C8AE793
:101A3800A2F10805AD0089E7052400E00024BC40B8
:101A480044EA0C040235314F47F825404C6814F439
:101A5800803F3DD0314D2C681C432C604C6814F4F9
:101A6800003F3BD02D4D6C681C436C604C6814F4EF
:101A7800801F39D0294DAC681C43AC604C6814F405
:101A8800001F37D0254DEC682343EB6001320B680B
:101A980033FA02F434D00124944023409C42F5D117
:101AA8004D68122DB7D094D8022DB1D07FF643AF30
:101AB800032DB6D0112D7FF443AFCE6804363FE72F
:101AC8000124BCE70224BAE70324B8E70424B6E7F4
:101AD800124D2C6824EA03042C60BFE70F4D6C6894
:101AE80024EA03046C60C1E70C4DAC6824EA0304E3
:101AF800AC60C3E7094DEC6824EA0303EB60C5E773
:101B080002B0F0BC704700BF001002400000014066
:101B180000080140000021100000311000040140BD
:101B280012B909040161704701617047C36801EA8D
:101B3800030221EA030141EA02410161704790F87A
:101B48002130022B06D004238363002380F8203041
:101B5800012070470268136823F00E0313600268BF
:101B6800136823F001031360036CC16B012202FAAE
:101B780003F34B6080F82120002380F820301846BA
:101B88007047000008B590F82130022B03D00423D9
:101B98008363012008BD0268136823F00E031360F5
:101BA8000268136823F00103136003684B4A9342E9
:101BB8004ED9783A934224D01432934230D014321A
:101BC80093422FD0143293422FD0143293422FD005
:101BD800143293422FD0143293422FD002F56272FE
:101BE80093422ED0143293422DD0143293422CD0EB
:101BF8001432934202D04FF4803203E04FF4805203
:101C080000E00122364B5A60012380F8213000237E
:101C180080F82030436B002B5ED098470020B9E74E
:101C28001022EFE74FF48072ECE74FF48052E9E7B7
:101C38004FF48032E6E74FF48012E3E74FF080720A
:101C4800E0E70122DEE71022DCE74FF48072D9E7F3
:101C5800244A934224D01432934225D0143293421A
:101C680024D01432934224D01432934224D0143214
:101C7800934224D01432934224D002F562729342E4
:101C880023D01432934222D01432934221D01432FA
:101C9800934202D04FF4803203E04FF4805200E0C8
:101CA8000122114B5A60AFE71022FAE74FF4807215
:101CB800F7E74FF48052F4E74FF48032F1E74FF43E
:101CC8008012EEE74FF08072EBE70122E9E710227D
:101CD800E7E74FF48072E4E700205BE7800002400A
:101CE800000402400800024000000240074AD3688E
:101CF80023F4E0631B041B0C000200F4E0601843AB
:101D080040F0BF6040F40030D060704700ED00E064
:101D180030B4174BDB68C3F30223C3F10704042C68
:101D280028BF04241D1D062D18D9033B4FF0FF358D
:101D380005FA04F421EA0401994005FA03F322EABA
:101D48000303194300280BDB0901C9B200F1604005
:101D580000F5614080F8001330BC70470023E5E7C8
:101D680000F00F000901C9B2024B1954F4E700BF93
:101D780000ED00E014ED00E0002807DB00F01F0292
:101D8800400901239340024A42F82030704700BFBF
:101D980000E100E00138B0F1807F0AD2064B5860BC
:101DA800064AF02182F823100020986007221A6062
:101DB80070470120704700BF10E000E000ED00E030
:101DC8007047000070B588B0283925295AD8DFE84F
:101DD80011F026006D006B005E005C005900590090
:101DE8005900590059005900590059005900590023
:101DF8005900590059005900590059005900590013
:101E0800590071007C00870091009B00A500AF007D
:101E1800B900C300CE00D900EA0059005900674B49
:101E28009A6942F010029A619A6902F010020192CE
:101E3800019A9A6942F010029A619A6902F01002B6
:101E48000292029A9A6942F008029A619B6903F029
:101E580008030393039B0025069541F63F6304930B
:101E6800012605960324079404A95548FFF75EFD4B
:101E78004FF47043049305960695079404A95148B6
:101E8800FFF754FD012008B070BD00BFFAE700BF9E
:101E980000BF00BFF6E700BF01339BB202EB820030
:101EA80081018B42F7DBEDE70023F7E71046FFF7E8
:101EB800F9F9E7E722B1424B4FF400621A61E1E712
:101EC8003F4B4FF000621A61DCE722B13C4B4FF404
:101ED80080521A61D6E73A4B4FF080521A61D1E727
:101EE8001AB1374B20221A61CCE7354B4FF4001258
:101EF8001A61C7E71AB1324B10221A61C2E7304B98
:101F08004FF480121A61BDE71AB12D4B08221A61ED
:101F1800B8E72B4B4FF400221A61B3E71AB1284BEC
:101F280004221A61AEE7264B4FF480221A61A9E712
:101F38001AB1234B02221A61A4E7214B4FF4003255
:101F48001A619FE71AB11E4B01221A619AE71C4BCE
:101F58004FF480321A6195E722B1194B4FF4806231
:101F68001A618FE7164B4FF080621A618AE722B137
:101F7800144B4FF400421A6184E7124B4FF00042B1
:101F88001A617FE73AB10F4B4FF400521A614FF0D4
:101F980080521A6176E70B4B4FF000521A614FF0EE
:101FA80080521A616EE722B1064B4FF480421A61E3
:101FB80068E7044B4FF080421A6163E70010024063
:101FC80000100140000C014010B5124C124B134A8E
:101FD8001349204600F0F0F823681B7CDB0094F8D6
:101FE800380000FB03F000F06DFD6063204600F050
:101FF800D8FC5521204600F0E2FC0021204600F0E4
:10200800D7FC204600F0BEF8FFF746F9054B1860EC
:1020180010BD00BF50020020CD1D00081D2600087D
:1020280074490008F801002010B582B0084A1378F6
:10203800084C5168019152780092DB080022114641
:10204800204600F04DF8204600F0A9F802B010BD77
:102058006C450008500200202DE9F04F83B0074678
:102068000D4691461C46DDF8308090F882B0CB18BA
:10207800561CF6B20096DBB200F06CF968B3BBFAF6
:102088008BFA4FEA5A1A802612E087F882B00023AA
:10209800009301234A462946384600F0E1F8013505
:1020A800EDB2760802D108F101088026013CE4B2BD
:1020B8008CB198F800301E42E7D197F88130002B98
:1020C800EDD187F882A0009301234A462946384675
:1020D80000F0C6F8E3E787F882B003B0BDE8F08FF8
:1020E8002DE9F04782B082468846154699469DF804
:1020F80028400B9EDF00FFB207EB010C1319DBB27F
:1021080000935FFA8CF300F025F960B90DE00096B2
:102118003B462A4641465046FFF79EFF4E4401354E
:10212800EDB2013CE4B2002CF1D102B0BDE8F08779
:1021380010B582B003681B7C446B03FB01F1C90036
:1021480089B221440091002100F012FC02B010BDB8
:102158002DE9F041064690F8387090F83950036838
:1021680093F8118000242A4621463046FFF7E0FF05
:102178000134E4B20135EDB2A74201D9A845F2D83D
:10218800BDE8F08108B503681A7C90F8383002FB86
:1021980003F2D2000021406B00F09CFC08BD10B592
:1021A8000446FFF7D5FF204600F010FC10BD0823B9
:1021B800037000207047000030B585B004460D4616
:1021C80000931346084A094900F022FC0DF10F005C
:1021D800FFF7EDFF9DF80F200095054B01462046BF
:1021E80000F0CAF905B030BD9B270008F9270008A0
:1021F8008F23000800207047014B0365704700BF1C
:10220800FD21000830B405780C782C44E4B2A542CE
:1022180003D99D4210D25C1EE4B29D420ED2944274
:102228000FD9954200D32A469C4200D82346027013
:102238009B1A0B70012002E01546EEE7002030BC27
:1022480070470020FBE730B583B090F83C40121B84
:10225800C46A9DF818500095D2B2A04703B030BDAB
:1022680070B584B09DF820508DF80F108DF80E20B1
:102278008DF80D3090F87C30B3B19DF80D309BB1DE
:10228800012B03D9022D11D0032D16D0044615F0C9
:10229800010532D190F843209DF80E309A4203D8B8
:1022A80090F84420934210D304B070BDCAB2D31A38
:1022B800DBB201338DF80F30E8E79DF80E20D31A12
:1022C800DBB201338DF80E30E0E790F8423090F839
:1022D80041200DF10D010DF10F00FFF793FF0028CC
:1022E800E2D0236B9E689DF80D309DF80E209DF876
:1022F8000F1000952046B047D6E790F841209DF88A
:102308000F309A42D0D890F842209342CCD290F81D
:10231800443090F843200DF10D010DF10E00FFF748
:1023280071FF0028DDD1BFE78A4205D283420BD86E
:102338009A420BD901207047834209D99A4201D8A1
:102348000020704701207047012070470020704727
:102358000020704770B504460D461E469DF81030A3
:1023680090F8441090F84300FFF7DEFF034640B1B1
:1023780033462A4694F8421094F84100FFF7D4FFF8
:102388000346184670BDF0B59DF814E002F0070545
:102398000124AC40E4B290F88270012F19D90026CC
:1023A800012F18D002F0F802076897F810C0476BA1
:1023B80002FB0C12B918BEF1000F16D10A7832438D
:1023C800D2B2624001F8012B013B13F0FF03F5D1B3
:1023D800F0BD2646E4E70024E4E7012617E076008E
:1023E800F6B26400E4B2002BF2D00A783243D2B2DB
:1023F80062400A706A1C013BDBB212F00705EED19D
:1024080090F83A20114490F88220012AE5D9012A4F
:10241800E9D00124E7E770B4016890F83830DA00B1
:1024280080F83B200A7C1F2A00D91F22D20080F89E
:102438003A2090F83950EA00D2B280F83C205E1970
:102448004C7CA64201DD631BDBB2DB00DBB280F80B
:102458003D20134480F83E30F02380F83F308B8ACB
:10246800F02B01D880F83F30CB8A80F8403070BC20
:10247800704708B5FFF7CFFF08BD30B583B00446F5
:1024880090F8463090F8472090F8451090F848505A
:102498000095FFF75FFF18B3012384F87C3094F8A8
:1024A800412094F845309A4201D284F8413094F89A
:1024B800422094F846309A4201D984F8423094F880
:1024C800432094F847309A4201D284F8433094F874
:1024D800442094F848309A4205D984F8443002E000
:1024E800002384F87C3003B030BD08B5002380F8A1
:1024F800413090F83F2080F8422080F8433090F82F
:10250800403090F83E20934202D39A1A80F8432034
:1025180090F83D209B1A80F84430FFF7AEFF08BDC5
:1025280030B583B09DF8185090F84040A21AD2B246
:1025380090F83F40611AC9B235B1012D08D101396F
:10254800C9B2D21AD2B203E0013AD2B2C91AC9B298
:102558000095FFF778FE03B030BD08B5002280F87B
:10256800452080F84720FF2280F8462080F8482040
:10257800036B5B68984708BD70B50446049E002548
:10258800C564C362416380F8382080F8395080F808
:102598005F5080F88150012380F8823080F88330C2
:1025A8000663336898472046FFF7D7FF2046FFF7B2
:1025B80023FE84F8625070BD10B5046900230A46F2
:1025C8002021A04710BD10B5046913460A461721FB
:1025D800A04710BD00B583B002AA02F8011D012171
:1025E800FFF7F1FF03B05DF804FB38B505460C466C
:1025F80001F00102492100F0F0F9C4F340024E2134
:10260800284600F0EAF9C4F380024F21284600F07A
:10261800E4F938BD2DE9F0410646174698461439C5
:102628000C295CD8DFE801F0325B5B28434F5B5B29
:102638005B5B5B5B3E0005F001022146304600F023
:10264800CCF96D080134E4B2472CF4D933689A7B8D
:102658002C21304600F0C1F901224821304600F013
:10266800BCF93368DA7B2C21304600F0B6F9002239
:102678004821304600F0B1F92FB118F8015B013F4D
:10268800FFB24024E0E70120BDE8F08103685A78F2
:10269800492100F0A2F900224821304600F09DF9B6
:1026A8000120F1E74A2100F098F90120ECE71146F2
:1026B800FFF79BFF74693268002392782C2130461B
:1026C800A0470120E0E7446902680023D2782C2162
:1026D800A04739463046FFF788FF0120D4E700209D
:1026E800D2E710B5C46800230A461521A04710BDDB
:1026F80010B5C46800230A461621A04710BD10B5BE
:10270800C46813460A461721A04710BD10B5C4680F
:1027180000231A461821A04710BD10B5C46800232D
:102728001A461921A04710BD70B582B006460D465D
:102738002C4614F8011B172918D00CD919291FD9B0
:10274800FE2924D122788DF807202921304600F06F
:1027580044F90235ECE7152919D322788DF80720BA
:10276800F46800233046A0470235E1E76B7802AAF7
:1027780002F8013D01213046FFF7C1FF0235D7E7D6
:10278800F56800231A463046A8472546D0E702B028
:1027980070BD2DE9F04104460D4616469846A1F154
:1027A8001403052B21D8DFE803F018030C151818BB
:1027B8000021FFF701FF31462046FFF70BFF0120FC
:1027C80011E00021FFF7F8FE31462046FFF702FF2F
:1027D800012008E00121FFF7EFFE27694346324652
:1027E80029462046B847BDE8F0810020FBE70000F5
:1027F8002DE9F041054614461F460939062975D8C2
:10280800DFE801F0040A12741D303F00384900F077
:102818007BF80120BDE8F08100F07BF835492846B7
:10282800FFF782FF0120F5E722B93349FFF77CFF64
:102838000120EFE73149FFF777FF0120EAE742B9C6
:102848002F49FFF771FF2B689B7C85F82230012008
:10285800E0E72C49FFF768FF2B68DB7C85F822301E
:102868000120D7E7FFF752FF81212846FFF739FFFC
:10287800A1082846FFF73CFF2846FFF74EFF012036
:10288800C8E7FFF743FF7B79DB00DBB295F82280CE
:1028980098445FFA88F84FEA181141F01001284669
:1028A800FFF71FFF08F00F012846FFF71AFFB97955
:1028B80041F0B0012846FFF714FF3E79F600F6B262
:1028C8003F6806EB0803842B02D9C8F18406F6B2E8
:1028D8003A4631462846FFF712FF013C14F0FF0440
:1028E800F6D12846FFF719FF012093E7002091E76A
:1028F800C849000890490008B8490008C0490008BC
:10290800804900088849000801608B7C80F82230E3
:10291800704738B50446456900231A462821A84758
:10292800E56800231A4614212046A84701224B21B6
:10293800204600F052F823681A792921204600F031
:102948004CF800224B21204600F047F823681A79FA
:102958002921204600F041F801224B21204600F0B1
:102968003CF823685A792921204600F036F838BD0A
:1029780010B582B08DF805108DF806208DF804305A
:1029880002AB049A43F8082D846801220F21A0475E
:1029980002B010BD10B5846800231A460921A0476B
:1029A80010BD10B5846800231A460A21A04710BD3F
:1029B80010B5846800230A460B21A04710BD10B546
:1029C800846800230A460E21A04710BD10B584680C
:1029D80000231A461021A04710BD10B544690023F2
:1029E800A04710BD0020704700230360074A82609B
:1029F800C2600261426180F8233080F8263083612A
:102A0800FF2380F8243080F828307047ED2900082B
:102A1800F8B504460F4616461D46FFF7E5FFA760C2
:102A2800E6602561069B63612046FFF7B3FFF8BDAA
:102A38000C480D490D4A002302E0D458C450043311
:102A4800C4188C42F9D30A4A0A4C002301E01360E7
:102A58000432A242FBD3FFF7B3F900F00FF8FEF7F8
:102A6800AFF8704700000020DC010020104C00087F
:102A7800DC010020D8020020FEE7000070B5002528
:102A88000C4E0D4CA41BA410A54209D101F046FD23
:102A980000250A4E0A4CA41BA410A54205D170BDFE
:102AA80056F8253098470135EEE756F8253098470F
:102AB8000135F2E7084C0008084C0008084C0008EB
:102AC8000C4C0008024B0146186800F00BB800BF18
:102AD8000C00002003460244934200D1704703F8DB
:102AE800011BF9E770B5CD1C25F0030508350C2D41
:102AF80038BF0C25002D064601DBA94203D90C235B
:102B08003360002070BD01F0F0F9214A14682146B5
:102B180091B9204C23681BB9304600F07BFB20603C
:102B28002946304600F076FB431C24D10C2330465E
:102B3800336001F0DBF9E4E70B685B1B18D40B2B5F
:102B48000FD90B60CC18CD50304601F0CFF904F105
:102B58000B00231D20F00700C31AD3D05A42E250BD
:102B6800D0E74B688C4216BF636013600C46EBE7F6
:102B78000C464968CCE7C41C24F00304A04205D0E5
:102B8800211A304600F046FB0130CFD02560DBE744
:102B9800FC01002000020020002B2DE9F0471E4612
:102BA800BBBF03F100431E4600232D2388B0149FAA
:102BB800DDE9121A27F02007462F1446109D0B70E6
:102BC80004D0452F00D10135022300E0032307AAD2
:102BD800049206AACDE902A2CDE900352246334681
:102BE80000F0B6FB472F804602D1119BDB0726D5A4
:102BF800462F08EB050911D198F80030302B0AD17F
:102C08000022002320463146FDF736FF18B9C5F1EA
:102C18000105CAF80050DAF8003099440022002370
:102C280020463146FDF728FF38B93022079B4B452F
:102C380005D2591C07911A70F8E7CDF81C90404648
:102C4800079B159AA3EB0803136008B0BDE8F0874B
:102C5800F7B50029B4BF2D232B230446B8BF49423A
:102C6800092904F8022B437021DD0DF107031F46E3
:102C78000A2691FBF6F506FB1511092D01F1300125
:102C880003F8011C03F1FF32294609DC3031023B0D
:102C980002F8011CBB42224604D3101A03B0F0BD4F
:102CA8001346E6E713F8012B04F8012BF2E730236B
:102CB80019448370021DC170EFE700002DE9F04F41
:102CC80091B00C461A9F93461E46054601F0F4F84B
:102CD800036818460993FDF7A3FA00230E933B688F
:102CE8000A90073323F0070303F1080294F81880C9
:102CF800D4F800A03A60D3E90023C4E91223D4E948
:102D0800127929F000430B934FF0FF32A64B384657
:102D18000B99FDF7E3FE68BB4FF0FF32A24B384634
:102D28000B99FDF7BDFE28BB002200233846494613
:102D3800FDF7ACFE10B12D2384F843309B4F9C4B1C
:102D4800B8F1470F98BF1F4603234FF000092361CE
:102D58002AF00403236000965B460FAA2146284602
:102D680000F0E2F9013040F090804FF0FF3011B0F0
:102D7800BDE8F08F3A464B4638464946FDF7AEFE69
:102D880010B18C4F8C4BDBE763684AF48062591CA6
:102D98000DA80EA940D1062363604FF0000C0DF179
:102DA8003303CDE9012363682260CDE9030800936A
:102DB8003A464B46CDE9051C2846FFF7EDFE08F0DC
:102DC800DF03472B074609D10D9BD81C02DB62683D
:102DD800934247DDA8F102085FFA88F8B8F1650F59
:102DE8000D9924D80139424604F150000D91FFF79E
:102DF8002FFF0E9A81461318012A236102DC2268EC
:102E0800D10701D5013323619DF83330002BA2D0BF
:102E18002D2384F843309EE7B8F1670F00F06E81E8
:102E2800B8F1470FB9D1002BB7D10123B4E7B8F1F6
:102E3800660F19D1002963680CDD216113B9226876
:102E4800D20702D501330B4423610D9B4FF00009D3
:102E5800A365D9E713B92268D00701D50233F3E790
:102E68000123F1E74FF06708DDE90D32934205DBF6
:102E780022682361D107E8D50133E5E7002BCCBFF1
:102E88000123C3F102031344DEE723685A0507D47C
:102E980023693A4659462846B047013029D164E7A4
:102EA800B8F1650F40F2D780D4E91201002200235F
:102EB800FDF7E2FD88B30123404A59462846B0474A
:102EC80001303FF452AFDDE90D239A4202DB23685B
:102ED800D8070ED5DDE9092359462846B047013001
:102EE8003FF443AF002704F11A080E9B013BBB4295
:102EF80009DC23689F0700F1FD80E0680F9B98427A
:102F0800B8BF184633E70123424659462846B0471A
:102F180001303FF42AAF0137E7E70D9B002B2BDC8C
:102F28000123264A59462846B04701303FF41DAFD1
:102F38000D9B23B90E9B13B92368D907D9D5DDE9B1
:102F4800092359462846B04701303FF40EAF4FF0E9
:102F5800000804F11A090D9B5B42434501DC0E9BF6
:102F680097E701234A4659462846B04701303FF4BF
:102F7800FCAE08F10108EEE70E9AA36D9A42A8BFCD
:102F88001A46002A904607DD134659463A4628460F
:102F9800B04701303FF4E9AE04F11A034FF0000ADC
:102FA80028EAE8780B9315E0FFFFEF7FE449000873
:102FB800E0490008EC490008E8490008F049000821
:102FC80001230B9A59462846B04701303FF4CDAE4D
:102FD8000AF1010AD4F85890A9EB08035345EFDC2D
:102FE800DDE90D239A424F4414DB2368DA0711D434
:102FF8000E9B0D99A3EB0902A3EB01099145A8BF0C
:103008009146B9F1000F0DDC002729EAE97904F1AE
:103018001A0818E0DDE9092359462846B047013067
:10302800E6D1A2E64B463A4659462846B047013013
:10303800EAD19AE60123424659462846B04701306C
:103048003FF493AE0137DDE90D239B1AA3EB090387
:10305800BB42EFDC4DE70E9A012A01DCDB0738D5CD
:1030680001233A4659462846B04701303FF47DAE21
:10307800DDE9092359462846B047013007F1010721
:103088003FF473AED4E912010E9B002203F1FF381E
:103098000023FDF7F1FCC0B943463A465946284695
:1030A800B04701300DD160E6012342465946284613
:1030B800B04701303FF459AE01370E9B013BBB428C
:1030C800F2DC4B4604F15002E4E6002704F11A084A
:1030D800F3E70123E1E70123424659462846B04772
:1030E80001303FF442AE0137E3680F9A9B1ABB42A6
:1030F800F1DC02E7002704F11908F5E7002B3FF49B
:1031080094AE4FF0000CCDE9051C0DF1330122609F
:10311800CDE90308CDE9012100933A464B462846FC
:10312800FFF73AFD07464FE62DE9F04791461F465F
:103138008A680B6906469342B8BF1346C9F800303F
:1031480091F843200C46DDF8208012B10133C9F80C
:1031580000302368990642BFD9F800300233C9F815
:103168000030256815F0060507D104F1190AE3684F
:10317800D9F800209B1AAB4229DC94F84330226826
:10318800003318BF012392062ED404F143023946B6
:103198003046C047013021D02368E56803F00603B4
:1031A800042B18BF0025D9F800204FF0000908BFEC
:1031B800AD1AA368226908BF25EAE5759342C4BF22
:1031C8009B1AED181A344D451AD1002008E0012346
:1031D800524639463046C047013003D14FF0FF30E0
:1031E800BDE8F0870135C2E73020E11881F84300D7
:1031F8005A1C94F845102244023382F84310C4E75D
:103208000123224639463046C0470130E6D009F14D
:103218000109D8E738B50023054C05460846236060
:1032280001F06EF9431C02D1236803B12B6038BD4D
:10323800D40200202DE9F74F03690C698046A342A8
:10324800C0F28480013C01F1140700F1140657F81C
:10325800245056F824000135B0FBF5F54FEA840CEC
:1032680006EB0C0307EB0C0901939DB34FF0000A22
:103278003846B646D34650F8042B93B205FB03A351
:10328800120C4FEA134A05FB02A29BB2ABEB0303F5
:10329800DEF800B04FEA124A1FFA8BFB5B441FFAB4
:1032A80082FBDEF800208145CBEB124202EB234281
:1032B8009BB243EA02434FEA224B4EF8043BDAD270
:1032C80056F80C3033B9019B043B9E421A4631D361
:1032D800C8F81040404601F01FF8002826DB3046A9
:1032E8004FF0000C013557F8041BD0F800E08BB202
:1032F800ACEB03031FFA8EF213440A0CC2EB1E4216
:1033080002EB23429BB243EA0243B9454FEA224CFF
:1033180040F8043BE7D256F8242006EB84032AB988
:10332800043B9E421A460BD3C8F81040284603B007
:10333800BDE8F08F1268043B002AC9D1013CC4E7FC
:103348001268043B002AEFD1013CEAE70020EEE7CF
:103358002DE9F04F16461F46456A95B00446DDF83C
:103368008480CDE902673DB91020FFF7ABFB6062AE
:10337800C0E901550560C560636A196851B15A68AA
:10338800012393404A608B60204600F0E4FD002250
:10339800636A1A603B1EAFBF0023012223F000437B
:1033A8000393ACBFC8F80030C8F80020AE4BDDF876
:1033B8000C8033EA08031BD142F20F73209A136082
:1033C800029B23B9C8F31300002800F04585229B0F
:1033D80053B9A64B21E0A64B06930833229A1360F3
:1033E800069815B0BDE8F08FA04B06930333F5E7B8
:1033F800DDE902670022002330463946FDF73CFB31
:10340800824660B10123209A1360229B002B00F0B2
:103418002085984B229A1360013B0693E0E712AB94
:10342800019313AB009332463B46204600F0ECFF75
:10343800C8F30A558346002D7DD0B046C7F3130361
:1034480043F07F5949F44019A5F2FF35CDF840A063
:103458000022894B40464946FCF7EEFE7CA3D3E99F
:103468000023FDF7A1F87CA3D3E90023FCF7E6FECF
:10347800064628460F46FDF72DF879A3D3E9002321
:10348800FDF792F802460B4630463946FCF7D6FE61
:1034980006460F46FDF738FB0022824600233046D9
:1034A8003946FDF7F3FA48B15046FDF713F83246AE
:1034B8003B46FDF7E1FA08B90AF1FF3ABAF1160FEF
:1034C8005AD8DDE902236D4901EBCA01D1E90001AF
:1034D800FDF7FAFA002851D000230AF1FF3A0D93BC
:1034E800129B5D1B6B1E079343BF0023C5F10109A7
:1034F80007934FF00009BAF1000F41DB079BCDF8A5
:1035080030A053440793002308931E9B092B00F215
:103518008F80052BC4BF043B1E931E9BC8BF00258C
:10352800A3F10203D8BF0125032B00F28D80DFE849
:1035380003F07B7D2F6FDDE912531D4405F2324005
:10354800202813DDC0F14000029B08FA00F805F2BC
:10355800124023FA00F048EA0000FCF7ABFF012311
:103568008046A1F1F879013D109371E7029BC0F103
:10357800200003FA00F0F0E70123B0E70D90AFE771
:10358800CAF1000308930023A9EB0A090C93BCE7CE
:10359800012309931F9B002B74DD98460493002296
:1035A800666A7260042202F11400984271686ED94A
:1035B800204600F09CFC636A30601B68B8F10E0F6F
:1035C800069300F2ED80002D00F0EA80DDE9022389
:1035D800BAF1000FCDE90E2377DD284A0AF00F0370
:1035E8004FEA2A1602EBC303F006D3E90023CDE91C
:1035F8000A2368D5DDE90E01214B0325D3E9082309
:10360800FDF7FCF8CDE9020106F00F061C4F4FE06C
:10361800012309931F9B534403F101080493434674
:10362800012BB8BF0123BAE70023B2E70023F0E774
:103638000125002309951E934FF0FF3300220493C0
:10364800984612231F92AAE701230993F4E700BFC3
:1036580061436F63A787D23FB3C8608B288AC63F90
:10366800FB799F501344D33F0000F07FFB490008CB
:10367800F2490008F14900080000F83F284A00080C
:10368800004A00080123049398461A46DAE70131F4
:103698007160520087E7F10708D5DDE90A01D7E92B
:1036A8000023FCF781FFCDE90A01013576100837C0
:1036B800002EF0D1DDE90A23DDE90201FDF79EF8CD
:1036C800CDE902011BE00225A0E700F0A480DDE9B6
:1036D8000E01CAF10006A04B06F00F0203EBC2036D
:1036E800D3E90023FCF760FF02250023CDE902019E
:1036F8009A4F3611002E40F08380002BE0D10D9BAD
:10370800002B00F08A80DDE90223CDE90A23DDE9F8
:103718000A010022924BFDF7B9F900287DD0B8F1D3
:10372800000F7AD0049B002B36DDDDE90A01002268
:103738008C4BFCF739FFCDE90201049E0AF1FF37F3
:1037480001352846FCF7C6FEDDE90223FCF72CFF0D
:103758000022854BFCF772FDA1F15075CDE90A01F5
:103768000B95002E5CD1DDE9020100227F4BFCF7AE
:1037780063FD0A9A2B46CDE90201FDF7A5F9002859
:1037880040F08182DDE902010A9A05F10043FDF764
:103798007DF9002840F07582DDE90E23CDE902238A
:1037A800139B002BC0F24B81BAF10E0F00F3478137
:1037B800694B03EBCA03D3E90023CDE904231F9B1C
:1037C800002B80F2D780B8F1000F00F3D38040F0CF
:1037D8005782DDE904010022644BFCF7E5FEDDE9D0
:1037E8000223FDF767F946464746002840F02D8238
:1037F800069B069A5D1C31230AF1010A137028E220
:10380800F20705D5D7E90023FCF7CEFE01230135E1
:10381800761008376EE7022571E75746464690E767
:103828004D4B03EBC60353E90201099B002B48D01B
:1038380002460B4600204E49FCF7E0FFDDE90A236B
:10384800FCF7FAFCCDE90A01069DDDE90201FDF766
:103858005BF91190FCF73EFE02460B46DDE90201DA
:10386800FCF7EAFC119BCDE90201303305F8013B76
:10387800DDE90A23FDF70AF9002863D1DDE902230F
:1038880000203749FCF7D8FCDDE90A23FDF7FEF8EC
:10389800002840F0B580069BEB1A9E427FF77CAF6C
:1038A800DDE90A0100222F4BFCF77EFE0022CDE95C
:1038B8000A01DDE902012B4BFCF776FECDE9020196
:1038C800C3E7DDE90A23FCF76FFE069BCDE90A0191
:1038D8009D191E46DDE90201FDF716F91190FCF766
:1038E800F9FD02460B46DDE90201FCF7A5FC119B38
:1038F800CDE90201303306F8013BAE424FF0000239
:1039080024D1DDE90A011A4BFCF798FC02460B4664
:10391800DDE90201FDF7D8F8002871D1DDE90A23B5
:1039280000201349FCF788FC02460B46DDE902013A
:10393800FDF7ACF800283FF42FAF15F8013C6A1EDC
:10394800302B01D0BA464AE01546F6E7054BFCF79E
:103958002BFECDE90201BDE7284A0008004A00080D
:103968000000F03F0000244000001C40000014400C
:103978000000E03F069DDDE90267DDE904233046EB
:103988003946FCF73BFFFDF7BFF88146FCF7A2FD7F
:10399800DDE90423FCF708FE02460B4630463946AB
:1039A800FCF74AFC09F1300605F8016B069E024651
:1039B800AE1BB0450B4635D1FCF740FCDDE90423CE
:1039C80006460F46FDF780F8C8B9DDE904233046FE
:1039D8003946FDF751F810B119F0010F0FD15946CA
:1039E800204600F0B8FA0023209A2B700AF1010350
:1039F8001360229B002B3FF4F3AC1D60F0E45746A4
:103A080015F8012C6B1E392A06D1069A9A4207D15D
:103A180030231370134601371A7801321A7091E770
:103A28001D46EDE70022994BFCF7BEFD002200235E
:103A380006460F46FDF720F800289ED0CFE7099AE2
:103A4800002A00F088801E9A012A6DDC109A002A4C
:103A580066D003F233434D46089E079A01211A4463
:103A680020469944079200F016FB0746002D0BDD0F
:103A7800079B002B08DDAB42A8BF2B46079AA9EB92
:103A88000309ED1AD31A0793089BEBB1099B002B86
:103A980065D08EB139463246204600F09BFB5A4627
:103AA80001460746204600F0FFFA59460A9020468C
:103AB80000F051FA0A9B9B46089B9A1B04D0594672
:103AC800204600F087FB83460121204600F0E3FAF8
:103AD8000C9B0646002B00F0C6811A46014620467C
:103AE80000F078FB1E9B0646012B3EDC029B002B58
:103AF80037D1039BC3F31303002B34D1039B23F06B
:103B080000431B0D1B052BB1079B09F1010901336C
:103B18000793012308930C9B002B28D101202EE04A
:103B2800129BC3F1360396E7089B08F1FF36B342B0
:103B3800B7BF089B9E1BF21A0C9BBFBF08969B1829
:103B48000C930026B8F1000FB9BFA9EB08050023B4
:103B58004D46434681E7089E4D46099F86E7089AE9
:103B6800ADE70023D6E7029BD4E700230893336927
:103B780006EB8303186900F040FAC0F12000079BA8
:103B8800184410F01F0047D0C0F12003042B3BDD80
:103B9800079BC0F11C008144054403440793B9F115
:103BA800000F05DD59464A46204600F061FB834672
:103BB800079B002B05DD31461A46204600F058FBCE
:103BC80006460D9B53B33146584600F0A5FB002826
:103BD80024DA002359460A22204600F0D3F9099B2B
:103BE8000AF1FF3A8346002B00F04481002339464E
:103BF8000A22204600F0C6F9049B0746002B4DDC3C
:103C08001E9B022B4ADD11E0C9D0079A1C331A44C7
:103C180099441D441346C1E70346F6E7B8F1000F7F
:103C280036DC1E9B022B33DDCDF81080049B63B974
:103C380031460522204600F0A5F9014606465846B9
:103C480000F06AFB00283FF7D3AD1F9B069D6FEA83
:103C5800030A4FF000093146204600F07CF9002F96
:103C68003FF4BDAEB9F1000F05D0B94503D04946C0
:103C7800204600F070F93946204600F06CF9AEE6AF
:103C880000263746E1E7BA463746B1E5000024404A
:103C9800099BCDF81080002B00F0F380002D05DD86
:103CA80039462A46204600F0E3FA0746089B002BCF
:103CB8004CD07968204600F01AF905463A6907F1B0
:103CC8000C01023292000C3000F004F9012229465E
:103CD800204600F0CDFAB9460746069B0793029B9B
:103CE80003F00103089331465846FFF7A3FA494603
:103CF800054600F13008584600F00EFB3A4602909F
:103D08003146204600F022FBC368024603BB014649
:103D18000990584600F000FB0346099A11462046D0
:103D2800099300F018F9099BA3B91E9A92B9089A49
:103D380082B9B8F1390F29D0029B002B01DD05F1BA
:103D48003108079B5D1C83F8008084E73846C2E78A
:103D58000123E3E7029A002A04DB23D11E9A0ABB57
:103D6800089AFAB9002BECDD59460122204600F0EA
:103D78007FFA3146834600F0CFFA002803DCE0D111
:103D880018F0010FDDD0B8F1390FD8D1079B079A89
:103D98005D1C3923137015F8013C6A1E392B4DD070
:103DA800013352E0079A002B02F1010506DDB8F154
:103DB800390FEBD008F10108079BC4E7069B049A6A
:103DC800EB1A934205F8018C21D0594600230A22A8
:103DD800204600F0D7F8B94583464FF000034FF06E
:103DE8000A024946204605D100F0CCF8814607462C
:103DF800079578E700F0C6F83946814600230A227D
:103E0800204600F0BFF80746F2E74FF00009594690
:103E18000122204600F02CFA3146834600F07CFA55
:103E28000028B8DC02D118F0010FB4D115F8013C14
:103E38006A1E302B7FF40FAF1546F7E7069B9342B7
:103E480005D13123069A0AF1010A137003E71546D2
:103E5800A1E7174BFFF7E1BA229B002B7FF4BBAA1F
:103E6800144BFFF7DABA1E9B012B7FF73FAE0C9B72
:103E7800089353E6049B002B03DC1E9B022B3FF7A1
:103E8800D5AE069D31465846FFF7D4F9069B00F19A
:103E9800300805F8018B049AEB1A9A42B5DD5946A9
:103EA80000230A22204600F06DF88346EAE700BFA7
:103EB800F0490008F2490008044B1B68186A044BD3
:103EC800002808BF1846F030704700BF0C000020DB
:103ED8007000002010B5431E0A44914200D110BD65
:103EE80011F8014B03F8014FF7E77047704770B5B9
:103EF800456A04460E463DB91020FEF7E3FD6062B0
:103F0800C0E901550560C560656AEB6883B1636AFD
:103F1800DB6853F82600B8B9012101FA06F56A1DD5
:103F28009200204600F0BFFA60B1C0E901650EE0DA
:103F380021220421204600F0B6FA636AE860DB68B3
:103F4800002BE4D1002070BD026843F8262000232E
:103F5800C0E90333F7E770B5446A06460D463CB935
:103F68001020FEF7AFFD7062C0E901440460C46030
:103F78003DB1736A6A68DB6853F82210296043F818
:103F8800225070BD2DE9F0411F4606460C4600231D
:103F98000D6901F1140CDCF80000013381B202FB59
:103FA8000171000C0F0C02FB007089B201EB00419B
:103FB8009D424FEA10474CF8041BECDCD7B1A368CC
:103FC800AB4212DC616830460131FFF790FF804652
:103FD800226904F10C01023292000C30FFF77AFFDB
:103FE80021463046FFF7B7FF444604EB8503013509
:103FF8005F6125612046BDE8F081020C120403468A
:10400800B2B90304102013F07F4F04BF1B0208301D
:1040180013F0704F04BF1B01043013F0404F04BF6E
:104028009B000230002B06DB5B0003D50130704794
:104038000020E8E7202070470368014613F00702D4
:104048000BD0DA0723D4980749BF5B089B080120E7
:104058000B605CBF0B600220704798B2A8B91020B3
:104068001B0C13F0FF0F04BF1B0A08301A0704BF0C
:104078001B0904309A0704BF9B080230DA0702D4F0
:104088005B0806D001300B6070471046E9E7002056
:1040980070472020704710B50C460121FFF727FF15
:1040A80001224461026110BD2DE9F74F14460A69E7
:1040B800236988469A42BEBF0B46A0461C46D8F8DC
:1040C8001070D4F81090D8F80830D8F8041007EB1E
:1040D8000906B342B8BF0131FFF709FF00F1140523
:1040E8002B46002205EB860E734516D304F1140205
:1040F80008F1140102EB890301EB87070093009B89
:10410800019293420CD8002E03DD5EF8043D002B8B
:104118005DD0066103B0BDE8F08F43F8042BE3E7F8
:10412800B2F800B0BBF1000F23D08946AC464FF07F
:10413800000859F8044BDCF800A0A3B21FFA8AFA69
:104148000BFB03A34FEA144ADCF8004043444FEA50
:1041580014480BFB0A84E24604EB13449BB243EA7F
:1041680004434F454FEA14484AF8043B2BD8CCF88F
:104178000480019B0432B3F802A0BAF1000F20D0EA
:104188008946A8464FF0000B2B68B9F800C0B8F86C
:1041980002409BB20AFB0C44C4465C4443EA044315
:1041A8004CF8043B59F8043BB8F804B01B0C0AFB64
:1041B80003B34F4503EB14434FEA134B05D8C8F834
:1041C800043004359BE7D446B3E7E046DDE7013E1B
:1041D80099E700002DE9F843154612F00302064658
:1041E8000F4607D0214C013A002354F82220FFF74C
:1041F800C9FE0746AD1035D0746A3CB91020FEF7E9
:1042080061FC7062C0E901440460C460D6F824808F
:10421800D8F808404CB940F271213046FFF73BFF0F
:1042280000230446C8F8080003604FF00008EB07B5
:104238000AD5394622463046FFF736FF81463946C9
:104248003046FFF788FE4F466D100BD0206838B90E
:10425800224621463046FFF727FF2060C0F800803D
:104268000446E4E73846BDE8F88300BFF04A000892
:104278002DE9F0470C460746164623694FEA621AAD
:104288000AEB03094968A36809F10105AB4232DB6F
:104298003846FFF72CFE002380461A4600F1140129
:1042A80053452BDB20692AEAEA7A04F1140316F055
:1042B8001F0201EB8A0103EB800C25D00020C2F11C
:1042C800200E8A461E68964030434AF8040B53F87D
:1042D800040B9C4520FA0EF014D8486008B109F187
:1042E8000205013D3846C8F810502146FFF733FE55
:1042F8004046BDE8F08701315B00C7E741F823205D
:104308000133CDE75146DCE7043953F8042B9C45CB
:1043180041F8042FF9D8E4E703690A6930B59B1A14
:104328000CD19200143014318418114454F8045DEF
:1043380051F8042D954203D005D30123184630BD0A
:10434800A042F3D3FAE74FF0FF33F7E72DE9F04740
:104358000D460746114628461446FFF7DDFF061EA0
:1043680008D131463846FFF7C2FD0123C0E90436BB
:10437800BDE8F087A4BF23462C4638466168A6BF2F
:104388001D4600260126FFF7B2FD4FF0000EC6605D
:104398002B69266904F1140205F1140902EB86075A
:1043A80009EB830800F1140152F804AB59F8045BD7
:1043B8001FFA8AF37344ACB21B1B2C0CC4EB1A44CF
:1043C80004EB23449BB24FEA244EC84543EA044415
:1043D800944641F8044BE7D8BC4504D351F8043D52
:1043E80083B10661C4E75CF8044BA2B272441314AB
:1043F80003EB144392B242EA03424FEA234E41F8D8
:10440800042BE9E7013EE9E72DE9F3411C46DDE924
:10441800086501219046FFF76AFDC4F31302C4F34F
:104428000A54074634BB0192B8F1000227D002A80B
:1044380040F8082DFFF700FE0099F0B1019AC0F18D
:10444800200302FA03F30B43C2407B610192019BF4
:10445800002B14BF02210121BB613961C4B1A4F250
:10446800334404443460C0F135002860384602B053
:10447800BDE8F08142F48012D5E77961E7E701A849
:10448800FFF7DAFD0121019B39617B612030E5E707
:10449800A0F2324007EB810330601869FFF7ADFDE9
:1044A800C0EB4110E1E738B502FB01F42146FEF705
:1044B80019FB054618B122460021FEF70BFB2846DA
:1044C80038BD82B001B901A942B14BB113780B6074
:1044D8001278101C18BF012002B070471046FBE785
:1044E8006FF00100F8E749B1FF2A8BBF8A230A70F1
:1044F8000360012088BF4FF0FF30704708467047BF
:10450800044A05491368002B08BF0B46184410607D
:104518001846704704020020D8020020F8B500BFF2
:10452800F8BC08BC9E467047F8B500BFF8BC08BC8C
:044538009E467047E4
:1045400002030405060708090A0B0C0D0E0F1010D4
:10455000010200000000000000000000010203044E
:104560000607080900000000010203048040000063
:104570007445000800000000000000000000001E5C
:104580000000000000000000000000000000003EED
:104590000000000000000000000000000000003FDC
:1045A0000000000000000000000000000780007F05
:1045B00000000000000000000000000007C0007FB5
:1045C0000000000000000000000000000FE0007F7D
:1045D0000000000000000000000000000FE000FFED
:1045E0000000000000000000007000001FE000FF5D
:1045F000000000000000000000F800001FE000FFC5
:10460000800000000000000000FC00001FE000FF30
:10461000800000000000000001FC00003FE001FFFE
:10462000800000000000000001FE00003FE001FFEC
:10463000800000000000000001FE00003FE001FFDC
:10464000800000000000000003FE00007FE003FF88
:10465000800000000000000003FE00007FE003FF78
:10466000800000000000000007FFF8007FE003FF6B
:10467000000000000000000007FFFE007FE003FFD5
:1046800000000000000000000FFFFF80FFE003FFBC
:1046900000000000000000000FFFFFC0FFE007FF68
:1046A00000000000000000000FFFFFE0FFC007FF58
:1046B00000000000000000001FFFFFE0FFC007FF38
:1046C00000000000000000001FFFFFF0FFC00FFF10
:1046D00000000000000000003FFFFFF0FFC1FFFFEF
:1046E000E0000000000000007FFFFFF8FFFFFFFF79
:1046F000E0000000000000007FFE1FF8FFFFFFFF4A
:104700000000000000000000FFFC0FF9FFFFFFFCAD
:104710000000000000000000FFF807F9FFF80FFCA0
:1047200000000000000000007FF007F9FFC00FF854
:1047300000000000000000007FF003F9FF800FF888
:1047400000000000000000007FE007F9FF800FF884
:1047500000000000000000007FF007F9FF000FF8E4
:1047600000000000000000007FF01FF9FF000FF0C4
:104770000000000000000000FFFC7FF9FF000FF0C8
:104780000000000000000000FFFFFFF1FE000FF03E
:104790000000000000000000FFFFFFF1FE000FF02E
:1047A0000000000000000000FFFFFFE1FE000FF02E
:1047B0000000000000000001FFFFFFC1FC000FF03F
:1047C0000000000000000001FFFFFF81FC000FF06F
:1047D0000000000000000001FEFFFF01FC000FF0E0
:1047E0000000000000000001FE1FFC01FC0007F0BB
:1047F0000000000000000001FC01C001F80007F00B
:104800000000000000000003FC000000F80007F0BA
:104810000000000000000003FC000000F80007F0AA
:104820000000000000000003FC000000F00007F0A2
:104830000F80000000000003F8000000F00003F00B
:1048400038E0000000000003F8000000F00003F072
:104850003060000000000003F8000000600003E08A
:10486000604C000000000003F000000000000000A9
:10487000600C000000000007F000000000100000C5
:104880006000000000000007F000000000180000B9
:104890006000000006001E07F0180003003C8000C6
:1048A000F00000383F80F787F0E703FFE0FFC783A1
:1048B000FF3C03FE60C1C187E18381F0F0380180D5
:1048C000F00C0707E0C38087E381C1E07038018006
:1048D000600C0E03E0070007E781C1C0703801805B
:1048E000600C0E0078070007E7FFC1C03038018078
:1048F000600C1C007F070007E7FF81C03038018093
:10490000600C1C000FC70007E70001C030380180B1
:10491000600C1C0003E70007E70001C0303801808D
:10492000600C1C0000E7000FC78001C03038018018
:10493000600C0E0040E38007838001C030380180A6
:10494000600C0E0060C3C08783C0C1E0781C41804A
:10495000F00E0F837F81FF8300FF87F0FC0FCFE213
:10496000043F83FE00000800001E0000000000005D
:10497000000000207B240008F324000829250008FB
:104980001815A115C019FF001815A015C819FF00AA
:104990001815E215AE154015A115C015A615A315DD
:1049A0002CFE32152EFE32152FFE321526158116DD
:1049B0002715AE15A519FF001815A415AF19FF008E
:1049C0001815AE15A519FF000001963201013278C5
:1049D00000093D0000042850110800008400400038
:1049E000494E4600696E66004E414E006E616E0093
:1049F0003000496E66696E697479004E614E000040
:104A00000080E03779C34143176E05B5B5B89346CA
:104A1000F5F93FE9034F384D321D30F94877825A96
:104A20003CBF737FDD4F1575000000000000F03FB4
:104A30000000000000002440000000000000594079
:104A40000000000000408F40000000000088C340CC
:104A500000000000006AF8400000000080842E4141
:104A600000000000D01263410000000084D797418D
:104A70000000000065CDCD41000000205FA0024293
:104A8000000000E876483742000000A2941A6D4208
:104A9000000040E59C30A2420000901EC4BCD642FB
:104AA00000003426F56B0C430080E03779C34143A6
:104AB00000A0D8855734764300C84E676DC1AB431C
:104AC000003D9160E458E143408CB5781DAF15443A
:104AD00050EFE2D6E41A4B4492D54D06CFF0804415
:104AE000F64AE1C7022DB544B49DD9794378EA442A
:104AF00005000000190000007D0000004300504F39
:104B0000534958002E000020202020202020202063
:104B1000282828282820202020202020202020206D
:104B2000202020202020208810101010101010109D
:104B300010101010101010040404040404040404E1
:104B40000410101010101010414141414141010169
:104B50000101010101010101010101010101010145
:104B60000101101010101010424242424242020253
:104B70000202020202020202020202020202020215
:104B800002021010101020000000000000000000C1
:104B90000000000000000000000000000000000015
:104BA0000000000000000000000000000000000005
:104BB00000000000000000000000000000000000F5
:104BC00000000000000000000000000000000000E5
:104BD00000000000000000000000000000000000D5
:104BE00000000000000000000000000000000000C5
:104BF00000000000000000000000000000000000B5
:084C00000000000000000000AC
:044C08000D02000891
:044C0C00E9010008B2
:104C100001000000100000000024F400100000203B
:104C20000000000000000000000000000000000084
:104C30000000000000000000000000000000000074
:104C40000000000000000000000000000000000064
:104C50000000000000000000000000000000000054
:104C60000000000000000000000000000000000044
:104C70000000000000000000000000000000000034
:104C800043000000000000000000000000000000E1
:104C90000000000000000000000000000000000014
:104CA00043000000000000000000000000000000C1
:104CB00000000000000000000000000000000000F4
:104CC00043000000000000000000000000000000A1
:104CD00000000000000000000000000000000000D4
:104CE0004300000000000000000000000000000081
:104CF00000000000000000000000000000000000B4
:104D00004300000000000000000000000000000060
:104D10000000000000000000000000000000000093
:104D20004300000000000000000000000000000040
:104D30000000000000000000000000000000000073
:104D40004300000000000000000000000000000020
:104D50000000000000000000000000000000000053
:104D6000EF440008CB44000800000000064B000898
:104D7000044B0008054B0008054B0008054B0008D4
:104D8000054B0008054B0008054B0008054B0008C3
:104D9000054B0008054B0008FFFFFFFFFFFFFFFF6B
:104DA000FFFFFFFFFFFF000001004153434949009F
:104DB00000000000000000000000000000000000F3
:104DC000000000000000000000004153434949007A
:104DD00000000000000000000000000000000000D3
:0C4DE000000000000000000000000000C7
:0400000508002A398C
:00000001FF
